:020000040800F2
:1000000000C0002085670008A1160008AD16000892
:10001000B9160008C5160008D11600080000000037
:10002000000000000000000000000000E95F000880
:10003000DD16000800000000F9610008E91600085C
:10004000CD670008CD670008CD670008CD670008C0
:10005000CD670008CD6700080D170008CD670008C0
:10006000CD670008CD670008CD670008CD670008A0
:10007000CD670008CD67000801170008CD670008AC
:10008000CD670008CD670008CD670008CD67000880
:10009000CD670008CD670008CD670008CD67000870
:1000A000CD670008CD670008CD670008CD67000860
:1000B000CD670008CD670008CD670008CD67000850
:1000C000CD670008CD670008CD670008CD67000840
:1000D000CD670008F5160008CD670008CD67000859
:1000E00019170008CD670008CD670008CD67000824
:1000F000CD670008CD670008CD670008CD67000810
:10010000CD670008CD670008CD670008CD670008FF
:10011000CD670008CD670008CD670008CD670008EF
:10012000CD670008CD670008CD670008CD670008DF
:1001300000000000000000000000000000000000BF
:1001400000000000000000000000000000000000AF
:10015000000000000000000000000000000000009F
:10016000000000000000000000000000000000008F
:10017000000000000000000000000000000000007F
:10018000000000000000000000000000000000006F
:10019000000000000000000000000000000000005F
:1001A000000000000000000000000000000000004F
:1001B000000000000000000000000000000000003F
:1001C000000000000000000000000000000000002F
:1001D000000000000000000000000000000000001F
:0401E0005FF8E0F1F3
:1001E40010B5054C237833B9044B13B10448AFF36D
:1001F40000800123237010BD78000020000000005F
:10020400D471000808B5034B1BB103490348AFF38D
:10021400008008BD000000007C000020D4710008AC
:1002240080B500AF00F03AFA00BF80BD80B500AFE2
:1002340000F0A2FA00BF80BD80B584B000AF786042
:100244001249134800F082FB124B1B6807F10C01A2
:100254004FF0FF32184603F041FD0346012B13D142
:100264003B7B012B02D0022B07D00EE007F10C03DD
:100274000133184600F0B4F807E007F10C0301332A
:10028400184600F073FB00E000BFDDE7EC710008E6
:10029400007200089400002080B500AF0022042101
:1002A400102003F0A5FB0346054A1360044B1B68AA
:1002B400002B02D172B600BFFEE700BF80BD00BFB5
:1002C4009400002080B584B002AF0E4B1B68002B55
:1002D40002D172B600BFFEE700230193022300930C
:1002E40000234FF4C0720849084804F03DF87860D0
:1002F4007B68012B02D072B600BFFEE700BF08374F
:10030400BD4680BD94000020087200083D0200082C
:1003140080B584B000AF78607B68002B1BD0104B95
:100324001B68002B17D001233B737A6807F10D0378
:100334001188927819809A70094B186807F10C019A
:1003440000234FF0FF3203F0EBFB0346012B03D0F5
:1003540072B600BFFEE700BF1037BD4680BD00BFC8
:100364009400002080B584B000AF0346FB710D4BB0
:100374001B68002B12D002233B73FB797B73094B60
:10038400186807F10C0100234FF0FF3203F0C8FB9B
:100394000346012B03D072B600BFFEE700BF10373F
:1003A400BD4680BD9400002080B483B000AF0346F6
:1003B400FB71FB79002B02D0012B02D003E0054B2B
:1003C40002E0054B00E0054B18460C37BD4680BCE7
:1003D400704700BF14720008187200081C720008ED
:1003E40080B584B000AF78607B68002B17D07B6841
:1003F4005B78002B13D07B685B78012B01D10A4B0F
:1004040000E00A4BFB607B681B781846FFF7CCFFC3
:100414000246FB680649074800F07CFA00E000BF8A
:100424001037BD4680BD00BF247200082C7200083E
:10043400387200084072000890B587B000AF786049
:1004440000F0A8F80023FB750EE0FC7DFB7D184648
:1004540000F0AAFB03461A4604F118033B4403F8D0
:10046400082CFB7D0133FB75FB7D012BEDD9244961
:10047400244800F06BFA0023BB7539E0BB7D1846B5
:1004840000F092FB03467B75BB7D18333B4413F8A5
:10049400083C7A7D9A4228D0142004F0A9F8BB7D48
:1004A400184600F081FB03467B75BB7D18333B4443
:1004B40013F8083C7A7D9A4216D0BB7D18333B442E
:1004C4007A7D03F8082CBB7D3B737B7DBB737B7DFE
:1004D400012B01D1012300E002237B7307F10C03FC
:1004E4001846FFF715FF00E000BFBB7D0133BB7565
:1004F400BB7D012BC2D94FF4FA7000F06DF8BAE756
:10050400447200085C72000880B584B002AF002316
:1005140001930123009300234FF4C0720749084854
:1005240003F022FF78607B68012B02D072B600BF13
:10053400FEE700BF0837BD4680BD00BF60720008FB
:100544003D04000880B584B000AF0346FB7100236E
:10055400FB600E4B1B68002B13D00C4B1B6807F180
:100564000C020021184605F08FF8FB68002B09D017
:10057400074B4FF080521A60BFF34F8FBFF36F8F5A
:1005840000E000BF1037BD4680BD00BF98000020CA
:1005940004ED00E080B582B000AF04F0D9FD03465D
:1005A4000B4A13600B4800F029FB0023FB7107E0A2
:1005B400FB790121184600F08FFAFB790133FB71B6
:1005C400FB79012BF4D900BF00BF0837BD4680BDBD
:1005D400980000204905000880B582B000AF78601B
:1005E4007A680121002004F0D1FF00BF0837BD461E
:1005F40080BD000080B584B000AF78600023FB604C
:10060400002000F0ADFB012000F0AAFB11491248C4
:1006140000F09CF9002000F0DFFB012000F0FCFB5F
:10062400FA2003F0E5FF002000F0F6FB012000F0C3
:10063400D3FBFA2003F0DCFFFB680133FB60FB68AB
:1006440003F00103002BE5D10449034800F07EF9CF
:10065400E0E700BF6C72000884720008887200082A
:1006640080B584B002AF00230193012300930023DB
:100674004FF4C0720749084803F076FE78607B683F
:10068400012B02D072B600BFFEE700BF0837BD469B
:1006940080BD00BF94720008F905000880B500AF62
:1006A40000F0BCF8FFF7F8FD00F024F80249034815
:1006B40000F04CF900BF80BDA0720008B8720008B9
:1006C40080B500AF00F036F80249034800F03EF967
:1006D40000BF80BDC0720008B872000880B582B047
:1006E40000AF78600320FFF73DFE00BF0837BD462A
:1006F40080BD000080B582B002AF0B4B0093002395
:10070400012241F28831094805F030F90346084ACC
:100714001360074B1B68002B02D172B600BFFEE7C3
:1007240000BFBD4680BD00BFE1060008D4720008CA
:100734009C00002090B583B002AF0E4B1B68002BC9
:1007440002D172B600BFFEE70A4B1C6804F01CF924
:1007540002460023009300230121204605F058F9A6
:100764000346012B02D072B600BFFEE700BF043778
:10077400BD4690BD9C00002080B500AF09490A48E1
:1007840000F0E4F8FFF79EFD0120FFF7EBFDFFF713
:1007940097FFFFF765FFFFF7B7FE0220FFF7E2FDC3
:1007A40000BF80BDDC720008F872000880B590B00C
:1007B40002AF786004F0DAFC38633B6B012B08D19C
:1007C40007F10C007B68134A202106F039F878639E
:1007D4000CE004F0D9F8024607F10C007B680093A2
:1007E40013460D4A202106F02BF878637B6B002B0F
:1007F4000BDD7B6B1F2BA8BF1F23FB6207F10C03D0
:10080400FA6A1946002000F065FD00BF3837BD467E
:1008140080BD00BF007300080873000880B500AFF6
:10082400002000F009FD012003F061F90346054AA8
:100834001360044B1B68002B02D172B600BFFEE7A5
:1008440000BF80BDA000002080B5A8B000AFF86054
:10085400B9607A60FB68002B53D0BB68002B50D082
:1008640004F084FCC7F89C00D7F89C30012B10D00E
:10087400264B1B68002B0CD0244B1B684FF0FF3118
:10088400184603F0F3FA0346012B02D072B600BFF8
:10089400FEE7F868FFF78AFF07F114007B68BA687F
:1008A400802106F02DF8C7F89800D7F89830002B6F
:1008B4000EDDD7F898307F2BA8BF7F23C7F894307C
:1008C40007F11403D7F894201946002000F002FD24
:1008D4000F49002000F058FDD7F89C30012B11D0AF
:1008E4000A4B1B68002B0DD0084B1868002300220C
:1008F400002103F015F90346012B03D072B600BFA3
:10090400FEE700BFA037BD4680BD00BFA0000020A9
:10091400147300080EB480B585B000AF78607B68AE
:10092400002B0BD0FB69002B08D007F12003FB60E0
:10093400FA68F9697868FFF787FF00E000BF1437A9
:10094400BD46BDE8804003B07047000080B582B06A
:1009540000AF786039603A6803497868FFF7DAFFD6
:1009640000BF0837BD4680BD1873000880B582B04B
:1009740000AF78607B68002B19D07B681B78032B51
:1009840010D0032B15DC012B02D0022B05D010E074
:100994000A490B48FFF7DAFF0CE00A490848FFF759
:1009A400D5FF07E008490648FFF7D0FF02E000BF83
:1009B40000E000BF0837BD4680BD00BF1C730008BF
:1009C400347300083C7300085073000880B500AF0E
:1009D40000F008FEFFF724FCFFF728FC03F08AFE72
:1009E400FEE780B483B000AF0346FB71FB79012BB3
:1009F40094BF01230023DBB218460C37BD4680BCEC
:100A04007047000080B489B000AF78607B682C4ADE
:100A140093420CD12B4B9B692A4A43F00403936104
:100A2400284B9B6903F00403FB61FB6942E07B688C
:100A3400254A93420CD1234B9B69224A43F0080375
:100A44009361204B9B6903F00803BB61BB6931E0F0
:100A54007B681E4A93420CD11A4B9B69194A43F096
:100A640010039361174B9B6903F010037B617B694F
:100A740020E07B68164A93420CD1124B9B69114AC1
:100A840043F0200393610F4B9B6903F020033B6108
:100A94003B690FE07B680F4A93420BD1094B9B697A
:100AA400084A43F040039361064B9B6903F04003FB
:100AB400FB60FB6800BF2437BD4680BC704700BFA5
:100AC4000008014000100240000C014000100140E9
:100AD400001401400018014080B588B000AF0346FF
:100AE4000A46FB711346BB7107F1100300221A601A
:100AF4005A609A60DA60FB791846FFF772FF034682
:100B0400002B46D0254B9B69244A43F00103936193
:100B1400224B9B6903F00103FB60FB68FB79204ACD
:100B240052F833301846FFF76DFFFB791C4ADB009F
:100B340013449B883B61BB79012B01D1194B00E025
:100B440000237B610023BB61FB79154A52F83330E3
:100B540007F110021146184601F0D4FBBB79012BB2
:100B640018D1FB79002B08D100220621062000F0C1
:100B74004AFF062000F063FF0CE0FB79012B09D14A
:100B840000220621282000F03EFF282000F057FF15
:100B940000E000BF2037BD4680BD00BF001002400A
:100BA4007C7300080000311080B584B000AF0346A8
:100BB400FB71FB791846FFF714FF0346002B01D1A4
:100BC400002314E0FB790C4A52F83320FB790A49DC
:100BD400DB000B449B881946104601F027FD0346B1
:100BE400FB73FB7B012B0CBF01230023DBB21846F4
:100BF4001037BD4680BD00BF7C73000880B483B04D
:100C040000AF7860034A7B68136000BF0C37BD46B1
:100C140080BC7047A400002080B584B000AF0346B8
:100C2400FB80104B1B68002B17D00023FB7310E0D4
:100C3400FB7B0D4ADB0013449B88FA889A4205D15A
:100C4400084B1B68FA7B1046984707E0FB7B01338F
:100C5400FB73FB7B012BEBD900E000BF1037BD46D3
:100C640080BD00BFA40000207C73000880B483B062
:100C740000AF0346FB71FB79012B94BF01230023D2
:100C8400DBB218460C37BD4680BC704780B489B0CF
:100C940000AF78607B682C4A93420CD12B4B9B6944
:100CA4002A4A43F004039361284B9B6903F004032D
:100CB400FB61FB6942E07B68254A93420CD1234BDC
:100CC4009B69224A43F008039361204B9B6903F01C
:100CD4000803BB61BB6931E07B681E4A93420CD1B7
:100CE4001A4B9B69194A43F010039361174B9B6994
:100CF40003F010037B617B6920E07B68164A934212
:100D04000CD1124B9B69114A43F0200393610F4BA2
:100D14009B6903F020033B613B690FE07B680F4A4A
:100D240093420BD1094B9B69084A43F040039361FA
:100D3400064B9B6903F04003FB60FB6800BF24374C
:100D4400BD4680BC704700BF00080140001002404F
:100D5400000C014000100140001401400018014043
:100D640080B586B000AF0346FB7107F1080300228B
:100D74001A605A609A60DA60FB791846FFF776FFCA
:100D84000346002B21D0FB79124A52F8333018461F
:100D9400FFF77CFFFB790F4ADB0013449B88BB60A1
:100DA4000123FB6000233B6102237B61FB79094A39
:100DB40052F8333007F108021146184601F0A2FA3E
:100DC400FB79184600F028F800E000BF1837BD464C
:100DD40080BD00BF8C73000880B582B000AF0346AD
:100DE400FB71FB791846FFF741FF0346002B0DD03A
:100DF400FB79084A52F83300FB79064ADB001344B6
:100E04009B880022194601F028FC00E000BF083747
:100E1400BD4680BD8C73000880B582B000AF034628
:100E2400FB71FB791846FFF721FF0346002B0DD019
:100E3400FB79084A52F83300FB79064ADB00134475
:100E44009B880122194601F008FC00E000BF083726
:100E5400BD4680BD8C73000880B483B000AF0346E8
:100E6400FB71FB79002B0CBF01230023DBB2184676
:100E74000C37BD4680BC704780B485B000AF786045
:100E84007B68002B01D1012315E00023FB730EE0E6
:100E9400FB7B40F20C5202FB03F3094A13447A68C9
:100EA4009A4201D1FB7B06E0FB7B0133FB73FB7BA6
:100EB400002BEDD0012318461437BD4680BC704783
:100EC400A800002080B584B000AFEFF30583FB6079
:100ED400FB68002B0DD0EFF311824FF0500383F326
:100EE4001188BFF36F8FBFF34F8FBA607B60BB680D
:100EF40002E005F037F9002318461037BD4680BDDF
:100F040080B584B000AF7860EFF30583FB60FB68C5
:100F1400002B05D07B68BB60BB6883F3118802E0BB
:100F240005F048F900BF00BF1037BD4680BD80B54D
:100F340088B000AFF860B9607A60FB68B3F8083530
:100F4400C3F58063BB61BA697B68934228BF1346CB
:100F54007B617B69002B01D100233FE07B69FB614E
:100F6400FB68B3F80435C3F58063FA699A4205D97E
:100F7400FB68B3F80435C3F58063FB61FB68B3F821
:100F840004358033FA6813440433FA69B96818469F
:100F940005F040FCFB6803F18400BA68FB69D118D2
:100FA4007A69FB69D31A1A4605F034FCFB68B3F876
:100FB40004351A467B6913449BB2C3F309039AB2FE
:100FC400FB68A3F80425FB68B3F808257B699BB28A
:100FD40013449AB2FB68A3F808257B6918462037A6
:100FE400BD4680BD80B584B000AF78607B6893F85F
:100FF4000A35002B04D17B68B3F80835002B01D1E6
:10100400002350E07B68B3F80835FB81FB89802B13
:1010140001D98023FB81FB89BB817B68B3F806354A
:10102400C3F580639BB2BA899A4205D97B68B3F849
:101034000635C3F58063BB817B6803F284407B681B
:10104400B3F8063580337A6813440433BA891946F1
:1010540005F0E0FBBB8903F590637A681344181D1F
:101064007B6803F18401FA89BB89D31A1A4605F017
:10107400D1FB7B68B3F80625FB8913449BB2C3F309
:1010840009039AB27B68A3F806257B68B3F80825A0
:10109400FB89D31A9AB27B68A3F808257B680122DE
:1010A40083F80A25FB8918461037BD4680BD000029
:1010B40080B584B000AF0346FB71FB7940F20C525B
:1010C40002FB03F30E4A1344FB60F868FFF78AFF40
:1010D40003467B817B89002B0DD0F868FB6803F203
:1010E40084437A89194601F051FF0346002B03D04B
:1010F40072B600BFFEE700BF1037BD4680BD00BF1B
:10110400A800002080B58AB000AF786007F114030E
:1011140000221A605A609A60DA6000237B627B685E
:101124001B68404A934279D13F4B9B693E4A43F046
:10113400040393613C4B9B6903F004033B613B69EB
:10114400394B9B69384A43F480439361364B9B691E
:1011540003F48043FB60FB68334B5B69324A43F022
:1011640001035361304B5B6903F00103BB60BB684F
:101174004FF400737B610223BB610123FB610323F2
:101184003B6207F114031946284801F0BBF84FF4F9
:1011940080637B610023BB610023FB6107F11403BF
:1011A4001946224801F0AEF8214B7B627B6A214A42
:1011B4001A607B6A10225A607B6A00229A607B6AFA
:1011C4008022DA607B6A00221A617B6A00225A61FB
:1011D4007B6A00229A617B6A0022DA61786A00F0F5
:1011E40049FC0346002B02D072B600BFFEE77B68C1
:1011F4007A6A1A637B6A7A685A62002206210E2090
:1012040000F001FC0E2000F01AFC0022062125202B
:1012140000F0F9FB252000F012FC00E000BF2837A5
:10122400BD4680BD00380140001002400008014066
:10123400E80000204400024080B584B000AF0346BB
:10124400FB71FB791846FFF707FE0346002B38D0E5
:10125400FB7940F20C5202FB03F31C4A1344FB607B
:1012640040F20C520021F86805F0E2FAFB68BB601A
:10127400FA79174913465B001344DB000B441A68E0
:10128400BB681A604FF4E132BB685A60BB68002245
:101294009A60BB680022DA60BB6800221A61BB68EE
:1012A4000C225A61BB6800229A61BB680022DA6191
:1012B400B86801F01DFE0346002B03D072B600BFD0
:1012C400FEE700BF1037BD4680BD00BFA800002068
:1012D4009C73000880B588B000AF0346B9607A609B
:1012E400FB730023FB61FB7B1846FFF7B5FD034648
:1012F400002B3ED0BB68002B3BD07B68002B38D042
:10130400FB7B40F20C5202FB03F31D4A1344BB6106
:101314002AE0FFF7D7FD7861BA68FB69D1187A68CB
:10132400FB69D31A1A46B869FFF701FE3861FB7BE3
:101334001846FFF7BDFE7869FFF7E2FDFA693B69DD
:101344001344FB61FA697B689A4214D203F00EFFDE
:101354000346012B00D107E00A4B4FF080521A607C
:10136400BFF34F8FBFF36F8FFA697B689A42D0D374
:1013740002E000BF00E000BF2037BD4680BD00BFD3
:10138400A800002004ED00E080B584B000AF03465F
:101394003960FB713B68FB60FB68002B11D002E0F5
:1013A400FB680133FB60FB681B78002BF8D1FA68FB
:1013B4003B68D31A1A46FB7939681846FFF78AFF47
:1013C40000E000BF1037BD4680BD000080B582B08C
:1013D40000AF0346FB71FB791846FFF73DFD03465A
:1013E400002B0AD0FB7940F20C5202FB03F3054AAE
:1013F4001344184601F036FE00E000BF0837BD462E
:1014040080BD00BFA800002080B584B000AF0346B3
:10141400FB71FB791846FFF71FFD0346002B0DD027
:10142400FB7940F20C5202FB03F3064A1344FB60BF
:10143400FB684033184600F0FBFC00E000BF1037A7
:10144400BD4680BDA800002080B584B000AF7860A0
:101454007868FFF711FD0346FB73FB7B1846FFF723
:10146400FBFC0346002B15D0FFF72CFDB860FB7B7B
:101474000A4A40F20C5101FB03F3134403F20A53EA
:1014840000221A70FB7B1846FFF712FEB868FFF7BC
:1014940037FD00E000BF1037BD4680BDA800002026
:1014A40080B584B000AF78607868FFF7E5FC034648
:1014B400FB73FB7B1846FFF7CFFC0346002B15D0CC
:1014C400FFF700FDB860FB7B0A4A40F20C5101FBB8
:1014D40003F3134403F20A5300221A70FB7B1846E9
:1014E400FFF7E6FDB868FFF70BFD00E000BF10371B
:1014F400BD4680BDA800002080B590B000AF07F1C4
:10150400180328220021184605F092F93B1D0022F9
:101514001A605A609A60DA601A610223BB6101237F
:10152400BB621023FB6201237B6307F11803184697
:1015340001F0C4F80F237B600023BB600023FB6031
:1015440000233B6100237B613B1D0021184601F011
:1015540037FB00BF4037BD4680BD80B590B000AFBB
:1015640007F1180328220021184605F061F93B1DF4
:1015740000221A605A609A60DA601A610323BB6120
:101584004FF48033FB610123BB621023FB6202230F
:101594007B634FF48033BB634FF4E013FB6307F1C9
:1015A4001803184601F08AF80346002B02D0FFF70F
:1015B400A3FF14E00F237B600223BB600023FB60C6
:1015C4004FF480633B6100237B613B1D022118467D
:1015D40001F0F6FA0346002B01D0FFF78DFF4037E8
:1015E400BD4680BD80B500AF00F0CEF8FFF7B5FF73
:1015F40000BF80BD80B400AF72B600BF00BFFDE77E
:1016040080B500AFFFF7F6FF00BF80BD80B500AF27
:10161400FFF7F0FF00BF80BD80B500AFFFF7EAFF22
:1016240000BF80BD80B500AFFFF7E4FF00BF80BD01
:1016340080B500AFFFF7DEFF00BF80BD80B400AF10
:1016440000BFBD4680BC704780B500AF00F0E8F82D
:1016540003F08CFD0346012B01D004F0EFFD00BF25
:1016640080BD80B500AF0020FFF7B0FE00BF80BD95
:1016740080B500AF0020FFF7C7FE00BF80BD80B576
:1016840000AF012001F002F800BF80BD80B500AFBB
:101694004FF4005000F0FAFF00BF80BD80B500AFEA
:1016A400FFF7AEFF00BF80BD80B500AFFFF7AEFF10
:1016B40000BF80BD80B500AFFFF7AEFF00BF80BDA7
:1016C40080B500AFFFF7AEFF00BF80BD80B500AFAF
:1016D400FFF7AEFF00BF80BD80B500AFFFF7AEFFE0
:1016E40000BF80BD80B500AFFFF7AEFF00BF80BD77
:1016F40080B500AFFFF7B5FF00BF80BD80B500AF78
:10170400FFF7B6FF00BF80BD80B500AFFFF7B7FF9E
:1017140000BF80BD80B500AFFFF7B8FF00BF80BD3C
:1017240080B400AF154B1B68144A43F001031360E7
:10173400124B5A681149124B13404B600F4B1B68F4
:101744000E4A23F0847323F4803313600B4B1B681D
:101754000A4A23F480231360084B5B68074A23F486
:10176400FE035360054B4FF41F029A60054B4FF084
:1017740000629A6000BFBD4680BC70470010024002
:101784000000FFF800ED00E080B500AF084B1B68D7
:10179400074A43F010031360032000F029F90F20D7
:1017A40000F00EF800F006F80023184680BD00BFD4
:1017B4000020024080B400AF00BFBD4680BC70472B
:1017C40080B582B000AF7860124B1A68124B1B7858
:1017D40019464FF47A73B3FBF1F3B2FBF3F31846F3
:1017E40000F03BF90346002B01D001230EE07B6897
:1017F4000F2B0AD8002279684FF0FF3000F003F96C
:10180400064A7B681360002300E00123184608376A
:10181400BD4680BD00000020080000200400002018
:1018240080B400AF054B1B781A46054B1B68134464
:10183400034A136000BFBD4680BC70470800002007
:10184400B405002080B400AF024B1B681846BD46A7
:1018540080BC7047B405002080B485B000AF7860C8
:101864007B6803F00703FB600C4BDB68BB60BA6862
:101874004FF6FF031340BB60FB681A02BB681343B7
:1018840043F0BF6343F40033BB60044ABB68D360D6
:1018940000BF1437BD4680BC704700BF00ED00E0B8
:1018A40080B400AF044BDB681B0A03F0070318463F
:1018B400BD4680BC704700BF00ED00E080B483B03B
:1018C40000AF0346FB7197F90730002B0BDBFB7964
:1018D40003F01F02064997F907305B09012000FA5B
:1018E40002F241F8232000BF0C37BD4680BC70478C
:1018F40000E100E080B483B000AF03463960FB71BF
:1019040097F90730002B0ADB3B68DAB20C4997F9E8
:1019140007301201D2B20B4483F800230AE03B687B
:10192400DAB20849FB7903F00F03043B1201D2B287
:101934000B441A7600BF0C37BD4680BC704700BF0D
:1019440000E100E000ED00E080B489B000AFF86091
:10195400B9607A60FB6803F00703FB61FB69C3F1BC
:101964000703042B28BF0423BB61FB690433062B44
:1019740002D9FB69033B00E000237B614FF0FF3297
:10198400BB6902FA03F3DA43BB681A407B699A40E5
:101994004FF0FF317B6901FA03F3D9437B680B40B5
:1019A400134318462437BD4680BC704780B582B0C7
:1019B40000AF78607B68013BB3F1807F01D30123E2
:1019C4000FE00A4A7B68013B53600F214FF0FF3060
:1019D400FFF790FF054B00229A60044B07221A6020
:1019E400002318460837BD4680BD00BF10E000E064
:1019F40080B582B000AF78607868FFF72DFF00BF34
:101A04000837BD4680BD80B586B000AF0346B960D7
:101A14007A60FB7300237B61FFF742FF78617A6889
:101A2400B9687869FFF790FF024697F90F301146BD
:101A34001846FFF75FFF00BF1837BD4680BD80B56D
:101A440082B000AF0346FB7197F907301846FFF7E1
:101A540035FF00BF0837BD4680BD80B582B000AFFA
:101A640078607868FFF7A2FF034618460837BD463A
:101A740080BD000080B485B000AF78600023FB60B7
:101A84007B68002B01D1012359E07B681B681A464F
:101A94002D4B9A420FD87B681B681A462B4B134474
:101AA4002B4AA2FB03231B099A007B681A647B68F8
:101AB400284ADA630EE07B681B681A46264B1344F7
:101AC400234AA2FB03231B099A007B681A647B68E0
:101AD400224ADA637B68022283F821207B681B6830
:101AE4001B68FB60FB6823F47F5323F03003FB6027
:101AF4007B685A687B689B681A437B68DB681A4377
:101B04007B681B691A437B685B691A437B689B6922
:101B14001A437B68DB691343FA681343FB607B68F1
:101B24001B68FA681A607B6800229A637B6801224A
:101B340083F821207B68002283F8202000231846A4
:101B44001437BD4680BC704707040240F8FFFDBF50
:101B5400CDCCCCCC00000240F8FBFDBF0004024019
:101B640080B586B000AFF860B9607A603B6000234E
:101B7400FB75FB6893F82030012B01D102234AE066
:101B8400FB68012283F82020FB6893F82130012BA5
:101B94003AD1FB68022283F82120FB6800229A6371
:101BA400FB681B681A68FB681B6822F001021A6054
:101BB4003B687A68B968F86800F076FBFB68DB6A12
:101BC400002B08D0FB681B681A68FB681B6842F08E
:101BD4000E021A600FE0FB681B681A68FB681B683A
:101BE40022F004021A60FB681B681A68FB681B6811
:101BF40042F00A021A60FB681B681A68FB681B68DB
:101C040042F001021A6005E0FB68002283F82020FC
:101C14000223FB75FB7D18461837BD4680BD0000C6
:101C240080B584B000AF78600023FB737B6893F8C1
:101C34002130022B05D07B6804229A630123FB73B5
:101C4400D6E07B681B681A687B681B6822F00E026A
:101C54001A607B681B681A687B681B6822F00102A3
:101C64001A607B681B681A46644B9A4258D97B6891
:101C74001B68634A93424FD07B681B68614A934256
:101C840048D07B681B68604A934240D07B681B68DD
:101C94005E4A934238D07B681B685D4A934230D0D9
:101CA4007B681B685B4A934228D07B681B68534A55
:101CB400934220D07B681B68574A934219D07B68B3
:101CC4001B68564A934212D07B681B68544A93425D
:101CD4000AD07B681B68534A934202D14FF4805365
:101CE4001BE04FF4803318E04FF4807315E01023A9
:101CF40013E0012311E04FF080730EE04FF48013E2
:101D04000BE04FF4803308E04FF4805305E04FF4C8
:101D1400807302E0102300E00123434A536057E03C
:101D24007B681B68364A93424FD07B681B68354AF0
:101D3400934248D07B681B68334A934240D07B6807
:101D44001B68324A934238D07B681B68304A9342FE
:101D540030D07B681B682F4A934228D07B681B686D
:101D6400264A934220D07B681B682B4A934219D0A1
:101D74007B681B68294A934212D07B681B68284AF7
:101D840093420AD07B681B68264A934202D14FF4DF
:101D940080531BE04FF4803318E04FF4807315E058
:101DA400102313E0012311E04FF080730EE04FF491
:101DB40080130BE04FF4803308E04FF4805305E0C8
:101DC4004FF4807302E0102300E00123174A5360AC
:101DD4007B68012283F821207B68002283F820207D
:101DE4007B685B6B002B03D07B685B6B78689847E0
:101DF400FB7B18461037BD4680BD00BF8000024003
:101E0400080002401C00024030000240440002402E
:101E1400580002406C000240080402401C040240C6
:101E24003004024044040240000402400000024026
:101E340080B584B000AF78607B68DB6B1B68FB60A7
:101E44007B681B681B68BB607B681B6C04229A4020
:101E5400FB681340002B00F0F180BB6803F004031F
:101E6400002B00F0EB807B681B681B6803F02003E9
:101E7400002B07D17B681B681A687B681B6822F0FB
:101E840004021A607B681B681A465F4B9A4258D951
:101E94007B681B685D4A93424FD07B681B685C4A31
:101EA400934248D07B681B685A4A934240D07B686F
:101EB4001B68594A934238D07B681B68574A93423F
:101EC40030D07B681B68564A934228D07B681B68D5
:101ED4004D4A934220D07B681B68524A934219D0E2
:101EE4007B681B68504A934212D07B681B684F4A38
:101EF40093420AD07B681B684D4A934202D14FF447
:101F040080431BE04FF4802318E04FF4806315E016
:101F1400402313E0042311E04FF080630EE04FF4FC
:101F240080030BE04FF4802308E04FF4804305E086
:101F34004FF4806302E0402300E004233D4A5360F1
:101F440057E07B681B68314A93424FD07B681B681B
:101F54002F4A934248D07B681B682E4A934240D054
:101F64007B681B682C4A934238D07B681B682B4AD9
:101F7400934230D07B681B68294A934228D07B68FF
:101F84001B68214A934220D07B681B68254A9342F0
:101F940019D07B681B68244A934212D07B681B6863
:101FA400224A93420AD07B681B68214A934202D199
:101FB4004FF480431BE04FF4802318E04FF4806318
:101FC40015E0402313E0042311E04FF080630EE09A
:101FD4004FF480030BE04FF4802308E04FF4804378
:101FE40005E04FF4806302E0402300E00423124A3A
:101FF40053607B68DB6A002B00F036817B68DB6A08
:102004007868984730E100BF800002400800024031
:102014001C000240300002404400024058000240CC
:102024006C000240080402401C04024030040240D8
:102034004404024000040240000002407B681B6C20
:1020440002229A40FB681340002B00F0DD80BB683D
:1020540003F00203002B00F0D7807B681B681B6829
:1020640003F02003002B0BD17B681B681A687B6884
:102074001B6822F00A021A607B68012283F821207F
:102084007B681B681A467B4B9A4258D97B681B684D
:10209400794A93424FD07B681B68784A934248D070
:1020A4007B681B68764A934240D07B681B68754AFC
:1020B400934238D07B681B68734A934230D07B6864
:1020C4001B68724A934228D07B681B68694A934212
:1020D40020D07B681B686E4A934219D07B681B68CA
:1020E4006C4A934212D07B681B686B4A93420AD0B5
:1020F4007B681B68694A934202D14FF400531BE08A
:102104004FF4003318E04FF4007315E0202313E07C
:10211400022311E04FF000730EE04FF400130BE0C4
:102124004FF4003308E04FF4005305E04FF400731C
:1021340002E0202300E00223594A536057E07B6801
:102144001B684D4A93424FD07B681B684B4A9342AD
:1021540048D07B681B684A4A934240D07B681B681E
:10216400484A934238D07B681B68474A934230D030
:102174007B681B68454A934228D07B681B683D4AAC
:10218400934220D07B681B68414A934219D07B68F4
:102194001B68404A934212D07B681B683E4A9342B4
:1021A4000AD07B681B683D4A934202D14FF4005326
:1021B4001BE04FF4003318E04FF4007315E02023C4
:1021C40013E0022311E04FF000730EE04FF400130C
:1021D4000BE04FF4003308E04FF4005305E04FF4F4
:1021E400007302E0202300E002232E4A53607B6840
:1021F400002283F820207B689B6A002B34D07B6804
:102204009B6A786898472FE07B681B6C08229A4089
:10221400FB681340002B28D0BB6803F00803002B95
:1022240023D07B681B681A687B681B6822F00E0247
:102234001A607B681A6C7B68DB6B012101FA02F27D
:102244005A607B6801229A637B68012283F821200B
:102254007B68002283F820207B681B6B002B04D052
:102264007B681B6B7868984700BF00BF1037BD467A
:1022740080BD00BF80000240080002401C000240F4
:102284003000024044000240580002406C0002400A
:10229400080402401C04024030040240440402408A
:1022A400000402400000024080B485B000AFF86032
:1022B400B9607A603B60FB681A6CFB68DB6B0121D8
:1022C40001FA02F25A60FB681B683A685A60FB68BC
:1022D4005B68102B08D1FB681B687A689A60FB68FE
:1022E4001B68BA68DA6007E0FB681B68BA689A6022
:1022F400FB681B687A68DA6000BF1437BD4680BC8F
:102304007047000080B48BB000AF78603960002360
:102314007B6200233B6279E101227B6A02FA03F3C8
:10232400FB613B681B68FA691340BB61BA69FB69CE
:102334009A4240F068813B685B68964A93425ED05B
:10234400944A934275D8944A934258D0924A9342FD
:102354006FD8924A934252D0904A934269D8904A95
:1023640093424CD08E4A934263D88E4A934246D0CD
:102374008C4A93425DD8122B2AD8122B59D801A229
:1023840052F823F003240008DD230008EF2300089B
:1023940031240008372400083724000837240008B3
:1023A400372400083724000837240008372400089D
:1023B400372400083724000837240008372400088D
:1023C4003724000837240008E5230008F92300080F
:1023D400754A934213D02CE03B68DB683B6229E0EA
:1023E4003B68DB6804333B6224E03B68DB6808330A
:1023F4003B621FE03B68DB680C333B621AE03B68DE
:102404009B68002B02D104233B6213E03B689B686A
:10241400012B05D108233B627B68FA691A6109E044
:1024240008233B627B68FA695A6103E000233B623C
:1024340000E000BFBB69FF2B01D87B6801E07B682B
:1024440004337B61BB69FF2B02D87B6A9B0002E0EB
:102454007B6A083B9B003B617B691A680F213B69DF
:1024640001FA03F3DB431A40396A3B6901FA03F3C7
:102474001A437B691A603B685B6803F08053002B46
:1024840000F0C180494B9B69484A43F001039361C2
:10249400464B9B6903F00103BB60BB68444A7B6AFB
:1024A4009B08023352F82330FB607B6A03F003037A
:1024B4009B000F2202FA03F3DB43FA681340FB602C
:1024C4007B683C4A93421FD07B683B4A934219D0B5
:1024D4007B683A4A934213D07B68394A93420DD0C1
:1024E4007B68384A934207D07B68374A934201D1CC
:1024F40005230AE0062308E0042306E0032304E09E
:10250400022302E0012300E000237A6A02F00302BE
:1025140092009340FA681343FB6025497B6A9B0849
:102524000233FA6841F823203B685B6803F4803384
:10253400002B06D0254B1A682449BB6913430B6052
:1025440006E0224B1A68BB69DB43204913400B6049
:102554003B685B6803F40033002B06D01B4B5A68BE
:102564001A49BB6913434B6006E0184B5A68BB69B0
:10257400DB43164913404B603B685B6803F48013EC
:10258400002B25D0114B9A681049BB6913438B600B
:1025940025E000BF000032100000311000002210BE
:1025A4000000211000001210000011100010024061
:1025B4000000014000080140000C014000100140EF
:1025C4000014014000180140001C014000040140B7
:1025D400154B9A68BB69DB43134913408B603B6816
:1025E4005B6803F40013002B06D00F4BDA680E4926
:1025F400BB691343CB6006E00B4BDA68BB69DB4372
:1026040009491340CB607B6A01337B623B681A68DB
:102614007B6A22FA03F3002B7FF47EAE00BF00BF77
:102624002C37BD4680BC70470004014080B485B09F
:1026340000AF78600B467B807B689A687B88134088
:10264400002B02D00123FB7301E00023FB73FB7B0F
:1026540018461437BD4680BC704780B483B000AFC1
:1026640078600B467B8013467B707B78002B03D00D
:102674007A887B681A6103E07B881A047B681A6194
:1026840000BF0C37BD4680BC7047000080B582B0E7
:1026940000AF0346FB80084B5A69FB881340002BAC
:1026A40006D0054AFB885361FB881846FEF7B4FA46
:1026B40000BF0837BD4680BD0004014080B586B028
:1026C40000AF78607B68002B01D1012372E27B6844
:1026D4001B6803F00103002B00F08780924B5B68BA
:1026E40003F00C03042B0CD08F4B5B6803F00C033A
:1026F400082B12D18C4B5B6803F48033B3F5803F15
:102704000BD1894B1B6803F40033002B6CD07B681E
:102714005B68002B68D101234CE27B685B68B3F5EE
:10272400803F06D1804B1B687F4A43F4803313609B
:102734002EE07B685B68002B0CD17B4B1B687A4ACC
:1027440023F480331360784B1B68774A23F4802387
:1027540013601DE07B685B68B3F5A02F0CD1724B4E
:102764001B68714A43F4802313606F4B1B686E4AE5
:1027740043F4803313600BE06B4B1B686A4A23F409
:1027840080331360684B1B68674A23F4802313600B
:102794007B685B68002B13D0FFF754F8386108E0BE
:1027A400FFF750F802463B69D31A642B01D903237F
:1027B40000E25D4B1B6803F40033002BF0D014E0FF
:1027C400FFF740F8386108E0FFF73CF802463B6940
:1027D400D31A642B01D90323ECE1534B1B6803F494
:1027E4000033002BF0D100E000BF7B681B6803F0CE
:1027F4000203002B63D04C4B5B6803F00C03002BEB
:102804000BD0494B5B6803F00C03082B1CD1464BDF
:102814005B6803F48033002B16D1434B1B6803F031
:102824000203002B05D07B681B69012B01D0012317
:10283400C0E13D4B1B6823F0F8027B685B69DB0059
:10284400394913430B603AE07B681B69002B20D0A5
:10285400364B01221A60FEF7F5FF386108E0FEF7F7
:10286400F1FF02463B69D31A022B01D90323A1E1EC
:102874002D4B1B6803F00203002BF0D02A4B1B687E
:1028840023F0F8027B685B69DB00274913430B6084
:1028940015E0264B00221A60FEF7D4FF386108E0E9
:1028A400FEF7D0FF02463B69D31A022B01D903235A
:1028B40080E11D4B1B6803F00203002BF0D17B6801
:1028C4001B6803F00803002B3AD07B689B69002B3C
:1028D40019D0174B01221A60FEF7B4FF386108E0E3
:1028E400FEF7B0FF02463B69D31A022B01D903233A
:1028F40060E10D4B5B6A03F00203002BF0D0012072
:1029040000F0D8FA1CE00A4B00221A60FEF79AFF86
:1029140038610FE0FEF796FF02463B69D31A022B9B
:1029240008D9032346E100BF0010024000004242E0
:1029340080044242924B5B6A03F00203002BE9D10C
:102944007B681B6803F00403002B00F0A6800023BF
:10295400FB758B4BDB6903F08053002B0DD1884B47
:10296400DB69874A43F08053D361854BDB6903F00D
:102974008053BB60BB680123FB75824B1B6803F467
:102984008073002B18D17F4B1B687E4A43F48073FD
:102994001360FEF757FF386108E0FEF753FF024665
:1029A4003B69D31A642B01D9032303E1754B1B68DC
:1029B40003F48073002BF0D07B68DB68012B06D115
:1029C4006F4B1B6A6E4A43F0010313622DE07B6870
:1029D400DB68002B0CD16A4B1B6A694A23F00103A4
:1029E4001362674B1B6A664A23F0040313621CE0FC
:1029F4007B68DB68052B0CD1614B1B6A604A43F092
:102A0400040313625E4B1B6A5D4A43F001031362C5
:102A14000BE05B4B1B6A5A4A23F001031362584BC9
:102A24001B6A574A23F0040313627B68DB68002B9C
:102A340015D0FEF707FF38610AE0FEF703FF0246F0
:102A44003B69D31A41F28832934201D90323B1E09E
:102A54004B4B1B6A03F00203002BEED014E0FEF78D
:102A6400F1FE38610AE0FEF7EDFE02463B69D31A37
:102A740041F28832934201D903239BE0404B1B6A05
:102A840003F00203002BEED1FB7D012B05D13C4B5F
:102A9400DB693B4A23F08053D3617B68DB69002BFD
:102AA40000F08780364B5B6803F00C03082B61D081
:102AB4007B68DB69022B46D1334B00221A60FEF798
:102AC400C1FE386108E0FEF7BDFE02463B69D31A39
:102AD400022B01D903236DE0294B1B6803F000731B
:102AE400002BF0D17B681B6AB3F5803F08D1244BDF
:102AF4005B6823F400327B689B68214913434B6075
:102B04001F4B5B6823F474127B68196A7B685B6AE9
:102B14000B431B4913434B601B4B01221A60FEF706
:102B240091FE386108E0FEF78DFE02463B69D31A38
:102B3400022B01D903233DE0114B1B6803F0007302
:102B4400002BF0D035E0104B00221A60FEF77AFE1D
:102B5400386108E0FEF776FE02463B69D31A022B81
:102B640001D9032326E0064B1B6803F00073002BF6
:102B7400F0D11EE07B68DB69012B07D1012319E04A
:102B84000010024000700040600042420B4B5B6842
:102B9400FB60FB6803F480327B681B6A9A4206D1AF
:102BA400FB6803F470127B685B6A9A4201D00123CC
:102BB40000E0002318461837BD4680BD00100240CF
:102BC40080B584B000AF786039607B68002B01D198
:102BD4000123D0E06A4B1B6803F007033A689A426A
:102BE40010D9674B1B6823F0070265493B68134300
:102BF4000B60634B1B6803F007033A689A4201D0E9
:102C04000123B8E07B681B6803F00203002B20D08B
:102C14007B681B6803F00403002B05D0594B5B68E9
:102C2400584A43F4E06353607B681B6803F008036D
:102C3400002B05D0534B5B68524A43F460535360F6
:102C4400504B5B6823F0F0027B689B684D4913434B
:102C54004B607B681B6803F00103002B40D07B684A
:102C64005B68012B07D1474B1B6803F40033002B2F
:102C740015D101237FE07B685B68022B07D1414BB0
:102C84001B6803F00073002B09D1012373E03D4B53
:102C94001B6803F00203002B01D101236BE0394BC5
:102CA4005B6823F003027B685B68364913434B601F
:102CB400FEF7C8FDF8600AE0FEF7C4FD0246FB68B3
:102CC400D31A41F28832934201D9032353E02D4BA6
:102CD4005B6803F00C027B685B689B009A42EBD153
:102CE400274B1B6803F007033A689A4210D2244B1F
:102CF4001B6823F0070222493B6813430B60204BF7
:102D04001B6803F007033A689A4201D0012332E0BA
:102D14007B681B6803F00403002B08D0194B5B6825
:102D240023F4E0627B68DB68164913434B607B68DD
:102D34001B6803F00803002B09D0124B5B6823F4D3
:102D440060527B681B69DB000E4913434B6000F043
:102D540021F802460B4B5B681B0903F00F030A4979
:102D6400CB5C22FA03F3094A1360094B1B6818462B
:102D7400FEF726FD002318461037BD4680BD00BF70
:102D84000020024000100240B4730008000000203C
:102D94000400002090B48AB000AF294B3C1D0FCB37
:102DA40084E80F0040F201233B800023FB610023F1
:102DB400BB6100237B6200237B6100233B62214BC8
:102DC4005B68FB61FB6903F00C03042B02D0082B46
:102DD40003D02BE01C4B3B622BE0FB699B0C03F004
:102DE4000F0328333B4413F8243C7B61FB6903F451
:102DF4008033002B12D0134B5B685B0C03F0010390
:102E040028333B4413F8283CBB617B690E4A03FB1F
:102E140002F2BB69B2FBF3F37B6204E07B690B4A09
:102E240002FB03F37B627B6A3B6202E0064B3B627C
:102E340000BF3B6A18462837BD4690BC704700BFA8
:102E44005C7300080010024000127A0000093D0083
:102E540080B400AF024B1B681846BD4680BC704767
:102E64000000002080B500AFFFF7F2FF0246054BDB
:102E74005B681B0A03F007030349CB5C22FA03F3E4
:102E8400184680BD00100240C473000880B500AF2E
:102E9400FFF7DEFF0246054B5B68DB0A03F007031E
:102EA4000349CB5C22FA03F3184680BD00100240AC
:102EB400C473000880B485B000AF78600A4B1B6807
:102EC4000A4AA2FB03235B0A7A6802FB03F3FB6052
:102ED40000BFFB685A1EFA60002BF9D100BF00BF87
:102EE4001437BD4680BC704700000020D34D6210EB
:102EF40080B582B000AF78607B68002B01D10123DC
:102F04003FE07B6893F83930DBB2002B06D17B6855
:102F1400002283F838207868FEF7F4F87B682422CE
:102F240083F839207B681B68DA687B681B6822F4A5
:102F34000052DA60786800F057FB7B681B681A69F6
:102F44007B681B6822F490421A617B681B685A698B
:102F54007B681B6822F02A025A617B681B68DA6866
:102F64007B681B6842F40052DA607B680022DA63F3
:102F74007B68202283F839207B68202283F83A205A
:102F8400002318460837BD4680BD000080B586B0D2
:102F940000AFF860B9601346FB80FB6893F83930E2
:102FA400DBB2202B53D1BB68002B02D0FB88002B53
:102FB40001D101234CE0FB6893F83830012B01D197
:102FC400022345E0FB68012283F83820BA68FB68D5
:102FD4001A62FB68FA889A84FB68FA88DA84FB68C8
:102FE4000022DA63FB68212283F83920FB681B6B1B
:102FF400194A9A62FB681B6B184ADA62FB681B6BFE
:10300400174A1A63FB681B6B00225A6307F1080313
:103014007B61FB68186B7B691968FB681B68043368
:103024001A46FB88FEF79CFDFB681B686FF04002A4
:103034001A60FB68002283F83820FB681B685A6911
:10304400FB681B6842F080025A61002300E00223FF
:1030540018461837BD4680BD81320008D3320008B7
:10306400EF32000880B588B000AF78607B681B68D9
:103074001B68FB617B681B68DB68BB617B681B6842
:103084005B697B6100233B610023FB60FB6903F008
:103094000F033B613B69002B0DD1FB6903F0200357
:1030A400002B08D0BB6903F02003002B03D0786801
:1030B40000F018FACBE03B69002B00F0AB807B6991
:1030C40003F00103002B05D1BB6903F49073002BBB
:1030D40000F0A080FB6903F00103002B0AD0BB6958
:1030E40003F48073002B05D07B68DB6B43F0010293
:1030F4007B68DA63FB6903F00403002B0AD07B6965
:1031040003F00103002B05D07B68DB6B43F0020264
:103114007B68DA63FB6903F00203002B0AD07B6946
:1031240003F00103002B05D07B68DB6B43F0040242
:103134007B68DA63FB6903F00803002B0AD07B6920
:1031440003F00103002B05D07B68DB6B43F008021E
:103154007B68DA637B68DB6B002B77D0FB6903F059
:103164002003002B07D0BB6903F02003002B02D0FF
:10317400786800F0B7F97B681B685B6903F040036B
:10318400002B14BF01230023DBB2FB607B68DB6BE5
:1031940003F00803002B02D1FB68002B31D07868C0
:1031A40000F002F97B681B685B6903F04003002BA5
:1031B40023D07B681B685A697B681B6822F0400235
:1031C4005A617B685B6B002B13D07B685B6B214A75
:1031D4005A637B685B6B1846FEF722FD0346002B9F
:1031E40016D07B685B6B5B6B7A68526B10469847B2
:1031F4000EE07868FEF754F90AE07868FEF750F9B3
:1032040006E07868FEF74CF97B680022DA631DE07B
:1032140000BF1BE0FB6903F08003002B08D0BB69EF
:1032240003F08003002B03D0786800F0EEF80EE082
:10323400FB6903F04003002B09D0BB6903F0400392
:10324400002B04D0786800F035F900E000BF203787
:10325400BD4680BDE733000880B483B000AF78601A
:1032640000BF0C37BD4680BC704780B483B000AF4C
:10327400786000BF0C37BD4680BC704780B584B011
:1032840000AF78607B685B6AFB607B681B681B68C7
:1032940003F02003002B13D1FB680022DA84FB68BF
:1032A4001B685A69FB681B6822F080025A61FB683C
:1032B4001B68DA68FB681B6842F04002DA6002E0CF
:1032C400F868FEF7C1F800BF1037BD4680BD80B571
:1032D40084B000AF78607B685B6AFB60F868FFF7D6
:1032E400BBFF00BF1037BD4680BD80B584B000AFC2
:1032F40078600023FB607B685B6ABB60BB681B680B
:103304005B6903F08003002B14BF01230023DBB2AD
:10331400FB60BB6893F83930DBB2212B08D1FB6822
:10332400002B05D0BB680022DA84B86800F027F8C7
:10333400BB681B685B6903F04003002B14BF0123C7
:103344000023DBB2FB60BB6893F83A30DBB2222B7C
:1033540008D1FB68002B05D0BB680022DA85B86869
:1033640000F022F8BB68DB6B43F01002BB68DA6341
:10337400B868FEF795F800BF1037BD4680BD80B42D
:1033840083B000AF78607B681B68DA687B681B6871
:1033940022F0C002DA607B68202283F8392000BF63
:1033A4000C37BD4680BC704780B483B000AF7860F2
:1033B4007B681B68DA687B681B6822F49072DA60A9
:1033C4007B681B685A697B681B6822F001025A619A
:1033D4007B68202283F83A2000BF0C37BD4680BCAE
:1033E400704780B584B000AF78607B685B6AFB602F
:1033F400FB680022DA85FB680022DA84F868FEF7AD
:103404004FF800BF1037BD4680BD80B485B000AF13
:1034140078607B6893F83930DBB2212B44D17B6828
:103424009B68B3F5805F1AD17B681B6AFB60FB68FD
:103434001B881A467B681B68C2F308025A607B68C3
:103444001B69002B05D17B681B6A9A1C7B681A6276
:103454000EE07B681B6A5A1C7B681A6208E07B6872
:103464001B6A591C7A6811621A787B681B685A6057
:103474007B68DB8C9BB2013B9BB27A681946D18492
:10348400002B0FD17B681B68DA687B681B6822F00D
:103494008002DA607B681B68DA687B681B6842F02C
:1034A4004002DA60002300E0022318461437BD46C8
:1034B40080BC704780B582B000AF78607B681B68C1
:1034C400DA687B681B6822F04002DA607B6820229D
:1034D40083F839207868FDF7B7FF002318460837CA
:1034E400BD4680BD80B584B000AF78607B6893F83A
:1034F4003A30DBB2222B71D17B689B68B3F5805FD5
:1035040023D17B689B6AFB607B681B69002B0ED10F
:103514007B681B685B689BB2C3F308039AB2FB68C1
:103524001A807B689B6A9A1C7B689A6229E07B6894
:103534001B685B689BB2DBB29AB2FB681A807B683B
:103544009B6A5A1C7B689A621BE07B681B69002B90
:103554000AD17B681B6858687B689B6A591C7A6827
:103564009162C2B21A700CE07B681B685B68DAB2C5
:103574007B689B6A581C7968886202F07F02D2B229
:103584001A707B68DB8D9BB2013B9BB27A6819464B
:10359400D185002B20D17B681B68DA687B681B68A7
:1035A40022F02002DA607B681B68DA687B681B689B
:1035B40022F48072DA607B681B685A697B681B6836
:1035C40022F001025A617B68202283F83A2078684D
:1035D400FFF74BFE002302E0002300E0022318461D
:1035E4001037BD4680BD000080B584B000AF786060
:1035F4007B681B681B6923F440517B68DA687B682D
:103604001B680A431A617B689A687B681B691A43C2
:103614007B685B691343FB607B681B68DB6823F48E
:10362400B05323F00C037A681268F9680B43D36033
:103634007B681B685B6923F440717B689A697B68CB
:103644001B680A435A617B681B68524A93424ED1F5
:10365400FFF71CFCB860BA6813469B0013449A0039
:103664001A447B685B689B00B2FBF3F34A4AA2FBF3
:1036740003235B091901BA6813469B0013449A009B
:103684001A447B685B689B00B2FBF3F2424BA3FBDA
:1036940002035B09642000FB03F3D31A1B013233DA
:1036A4003D4AA2FB03235B0903F0F0031944BA6803
:1036B40013469B0013449A001A447B685B689B0082
:1036C400B2FBF3F2344BA3FB02035B09642000FB5F
:1036D40003F3D31A1B0132332F4AA2FB03235B09E2
:1036E40003F00F027B681B680A449A604DE0FFF701
:1036F400B9FBB860BA6813469B0013449A001A4495
:103704007B685B689B00B2FBF3F3234AA2FB0323B1
:103714005B091901BA6813469B0013449A001A44C2
:103724007B685B689B00B2FBF3F21B4BA3FB0203B9
:103734005B09642000FB03F3D31A1B013233164ADE
:10374400A2FB03235B0903F0F0031944BA68134690
:103754009B0013449A001A447B685B689B00B2FB8D
:10376400F3F20D4BA3FB02035B09642000FB03F39C
:10377400D31A1B013233084AA2FB03235B0903F06B
:103784000F027B681B680A449A6000BF1037BD466D
:1037940080BD00BF003801401F85EB5180B483B069
:1037A40000AF4FF0500383F31188BFF36F8FBFF363
:1037B4004F8F7B6000BFFEE780B485B000AF7860B8
:1037C40039604FF0500383F31188BFF36F8FBFF359
:1037D4004F8FFB6000BFFEE780B483B000AF78601A
:1037E4007B6803F108027B685A607B684FF0FF3204
:1037F4009A607B6803F108027B68DA607B6803F1F6
:1038040008027B681A617B6800221A6000BF0C37CB
:10381400BD4680BC704780B483B000AF78607B68DD
:1038240000221A6100BF0C37BD4680BC704780B4CB
:1038340085B000AF786039603B681B68BB60BB68CB
:10384400B3F1FF3F03D17B681B69FB600CE07B682D
:103854000833FB6002E0FB685B68FB60FB685B6845
:103864001B68BA689A42F6D2FB685A683B685A6089
:103874003B685B683A689A603B68FA689A60FB68E0
:103884003A685A603B687A681A617B681B685A1CFC
:103894007B681A6000BF1437BD4680BC704780B493
:1038A40085B000AF78607B681B69FB607B685B68F0
:1038B4007A6892689A607B689B687A6852685A60F2
:1038C400FB685B687A689A4203D17B689A68FB68F4
:1038D4005A607B6800221A61FB681B685A1EFB68E9
:1038E4001A60FB681B6818461437BD4680BC7047D5
:1038F40080B584B000AF786039600123FB607B68D9
:10390400BB60BB68002B02D172B600BFFEE7BB6888
:10391400002B5DD0BB68DB6B002B59D0BB681A6CE5
:10392400BB68DB6B0021A3FB0223002B00D0012129
:103934000B46002B4CD102F015FCBB681A68BB681F
:10394400DB6BB968096C01FB03F31A44BB689A602A
:10395400BB6800229A63BB681A68BB685A60BB687C
:103964001A68BB68DB6B013BB968096C01FB03F3A4
:103974001A44BB68DA60BB68FF2283F84420BB6842
:10398400FF2283F845203B68002B14D1BB681B69D8
:10399400002B1AD0BB681033184601F0EFF9034628
:1039A400002B12D0114B4FF080521A60BFF34F8F8F
:1039B400BFF36F8F09E0BB6810331846FFF70CFFA5
:1039C400BB6824331846FFF707FF02F0F3FB01E05E
:1039D4000023FB60FB68002B02D172B600BFFEE738
:1039E400FB6818461037BD4680BD00BF04ED00E0FB
:1039F40080B58AB002AFF860B9601346FB7100234A
:103A0400FB61FB68002B2ED00021BA68FB68A3FB86
:103A14000223002B00D001210B46002B23D1FB688D
:103A2400BA6802FB03F313F1490F1CD8FB68BA68A8
:103A340002FB03F3BB61BB694833184602F070FC18
:103A4400F861FB69002B14D0FB697B617B69483307
:103A54007B61FA79FB69009313467A69B968F8685F
:103A640000F00CF805E0FB69002B02D172B600BF30
:103A7400FEE7FB6918462037BD4680BD80B584B09B
:103A840000AFF860B9607A60FB70BB68002B03D1AB
:103A9400BB69BA691A6002E0BB697A681A60BB69DB
:103AA400FA68DA63BB69BA681A640121B869FFF776
:103AB4001FFF00BF1037BD4680BD80B582B000AF88
:103AC40078607B68002B0ED07B6800229A607B684C
:103AD40000221A607B680022DA60002300220021A1
:103AE400786800F01DF800BF0837BD4680BD80B57A
:103AF40086B000AF0346FB7101237B6100233B6169
:103B0400FB791A4639697869FFF772FFF860F8683B
:103B1400FFF7D3FFFB6818461837BD4680BD000089
:103B240080B58AB000AFF860B9607A603B6000236A
:103B34007B62FB683B623B6A002B02D172B600BF1A
:103B4400FEE7BB68002B03D13B6A1B6C002B01D141
:103B5400012300E00023002B02D172B600BFFEE770
:103B64003B68022B03D13B6ADB6B012B01D10123A0
:103B740000E00023002B02D172B600BFFEE701F083
:103B8400F5FA0346002B02D17B68002B01D10123F7
:103B940000E00023002B02D172B600BFFEE702F062
:103BA400E1FA3B6A9A6B3B6ADB6B9A4202D33B684D
:103BB400022B29D13A68B968386A00F054FAF861DE
:103BC4003B6A5B6A002B10D03B6A2433184601F031
:103BD400D5F80346002B13D03F4B4FF080521A60A8
:103BE400BFF34F8FBFF36F8F0AE0FB69002B07D041
:103BF400394B4FF080521A60BFF34F8FBFF36F8F72
:103C040002F0D8FA012363E07B68002B03D102F0B1
:103C1400D1FA00235CE07B6A002B06D107F1140380
:103C2400184601F07BF901237B6202F0C3FA00F02D
:103C34009DFD02F097FA3B6A93F844305BB2B3F10E
:103C4400FF3F03D13B6A002283F844203B6A93F888
:103C540045305BB2B3F1FF3F03D13B6A002283F8E6
:103C6400452002F0A7FA3A1D07F11403114618463D
:103C740001F06AF90346002B24D1386A00F0EBFA0C
:103C84000346002B18D03B6A10337A681146184655
:103C940001F01AF8386A00F076FA00F075FD034670
:103CA400002B7FF47CAF0C4B4FF080521A60BFF3B3
:103CB4004F8FBFF36F8F72E7386A00F064FA00F039
:103CC40063FD6CE7386A00F05EFA00F05DFD0023E6
:103CD40018462837BD4680BD04ED00E080B58AB0A3
:103CE40000AFF860B9607A6000237B62FB683B62D6
:103CF4003B6A002B02D172B600BFFEE7BB68002B03
:103D040003D13B6A1B6C002B01D1012300E000238B
:103D1400002B02D172B600BFFEE701F027FA03467A
:103D2400002B02D17B68002B01D1012300E000238A
:103D3400002B02D172B600BFFEE702F013FA3B6A11
:103D44009B6BFB61FB69002B1FD0B968386A00F0DC
:103D5400F4F9FB695A1E3B6A9A633B6A1B69002BA0
:103D64000FD03B6A1033184601F008F80346002BC5
:103D740007D03D4B4FF080521A60BFF34F8FBFF313
:103D84006F8F02F017FA012369E07B68002B03D1DF
:103D940002F010FA002362E07B6A002B06D107F1DF
:103DA4001403184601F0BAF801237B6202F002FA08
:103DB40000F0DCFC02F0D6F93B6A93F844305BB2C5
:103DC400B3F1FF3F03D13B6A002283F844203B6AEE
:103DD40093F845305BB2B3F1FF3F03D13B6A002255
:103DE40083F8452002F0E6F93A1D07F11403114661
:103DF400184601F0A9F80346002B23D1386A00F0D5
:103E040014FA0346002B17D03B6A24337A68114610
:103E1400184600F059FF386A00F0B5F900F0B4FC18
:103E24000346002B89D1104B4FF080521A60BFF328
:103E34004F8FBFF36F8F80E7386A00F0A4F900F06A
:103E4400A3FC7AE7386A00F09EF900F09DFC386A1A
:103E540000F0EBF90346002B3FF46FAF0023184644
:103E64002837BD4680BD00BF04ED00E080B58AB0B0
:103E740000AF7860396000237B627B68FB610023BC
:103E84003B62FB69002B02D172B600BFFEE7FB69FF
:103E94001B6C002B02D072B600BFFEE701F066F97E
:103EA4000346002B02D13B68002B01D1012300E023
:103EB4000023002B02D172B600BFFEE702F052F9D4
:103EC400FB699B6BBB61BB69002B24D0BB695A1E89
:103ED400FB699A63FB691B68002B04D101F040FB6A
:103EE4000246FB699A60FB691B69002B0FD0FB69D2
:103EF4001033184600F042FF0346002B07D04D4B09
:103F04004FF080521A60BFF34F8FBFF36F8F02F0F0
:103F140051F9012389E03B68002B03D102F04AF9EF
:103F2400002382E07B6A002B06D107F10C031846BC
:103F340000F0F4FF01237B6202F03CF900F016FC70
:103F440002F010F9FB6993F844305BB2B3F1FF3F20
:103F540003D1FB69002283F84420FB6993F84530C0
:103F64005BB2B3F1FF3F03D1FB69002283F8452024
:103F740002F020F93A4607F10C031146184600F006
:103F8400E3FF0346002B32D1F86900F04EF90346F3
:103F9400002B26D0FB691B68002B09D102F0E2F844
:103FA400FB699B68184601F0FFF8386202F002F9D9
:103FB400FB6924333A681146184600F085FEF86917
:103FC40000F0E1F800F0E0FB0346002B7FF476AF4D
:103FD400184B4FF080521A60BFF34F8FBFF36F8FAF
:103FE4006CE7F86900F0CFF800F0CEFB66E7F869FB
:103FF40000F0C9F800F0C8FBF86900F016F90346B0
:10400400002B3FF45BAF3B6A002B0DD002F0AAF803
:10401400F86900F011F87861FB699B6879691846C2
:1040240001F0F6F902F0C6F8002318462837BD4619
:1040340080BD00BF04ED00E080B485B000AF7860BF
:104044007B685B6A002B06D07B681B6B1B68C3F123
:104054000803FB6001E00023FB60FB68184614378B
:10406400BD4680BC704780B586B000AFF860B960CB
:104074007A6000237B61FB689B6B3B61FB681B6C74
:10408400002B0DD1FB681B68002B4DD1FB689B688E
:10409400184601F029F97861FB6800229A6043E030
:1040A4007B68002B19D1FB685868FB681B6C1A46A7
:1040B400B96802F0AFFBFB685A68FB681B6C1A44D2
:1040C400FB685A60FB685A68FB689B689A422BD36A
:1040D400FB681A68FB685A6026E0FB68D868FB68CE
:1040E4001B6C1A46B96802F095FBFB68DA68FB683A
:1040F4001B6C5B421A44FB68DA60FB68DA68FB6895
:104104001B689A4207D2FB689A68FB681B6C5B4287
:104114001A44FB68DA607B68022B05D13B69002BEB
:1041240002D03B69013B3B613B695A1CFB689A63C3
:104134007B6918461837BD4680BD80B582B000AF94
:10414400786039607B681B6C002B18D07B68DA6858
:104154007B681B6C1A447B68DA607B68DA687B686E
:104164009B689A4203D37B681A687B68DA607B6831
:10417400D9687B681B6C1A46386802F04BFB00BF99
:104184000837BD4680BD80B584B000AF786001F0CB
:10419400E9FF7B6893F84530FB7311E07B685B6A49
:1041A400002B12D07B682433184600F0E7FD034649
:1041B400002B01D000F016FFFB7B013BDBB2FB734D
:1041C40097F90F30002BE9DC00E000BF7B68FF2289
:1041D40083F8452001F0EEFF01F0C4FF7B6893F8FB
:1041E4004430BB7311E07B681B69002B12D07B68E1
:1041F4001033184600F0C2FD0346002B01D000F036
:10420400F1FEBB7B013BDBB2BB7397F90E30002B95
:10421400E9DC00E000BF7B68FF2283F8442001F062
:10422400C9FF00BF1037BD4680BD80B584B000AF64
:10423400786001F097FF7B689B6B002B02D1012310
:10424400FB6001E00023FB6001F0B4FFFB6818464B
:104254001037BD4680BD80B584B000AF786001F0F2
:1042640081FF7B689A6B7B68DB6B9A4202D10123E6
:10427400FB6001E00023FB6001F09CFFFB68184633
:104284001037BD4680BD80B586B000AFF860B96018
:104294007A60FB687B6101F065FF7B6993F84430C9
:1042A4005BB2B3F1FF3F03D17B69002283F8442062
:1042B4007B6993F845305BB2B3F1FF3F03D17B696F
:1042C400002283F8452001F075FF7B699B6B002B6E
:1042D40006D17B6924337A68B968184600F010FD6A
:1042E4007869FFF750FF00BF1837BD4680BD80B521
:1042F4008AB004AFF860B9603B601346FB80FB886A
:104304009B00184602F00CF838613B69002B13D06F
:10431400542002F005F878617B69002B08D0542200
:104324000021786902F084FA7B693A691A6305E02E
:10433400386902F0FBF801E000237B617B69002B04
:104344000DD0FA88002303937B6902937B6A01935F
:104354003B6A00933B68B968F86800F029F87B6908
:1043640018461837BD4680BD80B588B002AFF860E6
:10437400B9603B601346FB80FA887B6A01933B6A11
:1043840000933B68B968F868FFF7B1FF38613B698F
:10439400002B05D0386900F097F801237B6102E017
:1043A4004FF0FF337B617B6918461837BD4680BDEB
:1043B40080B586B000AFF860B9603B601346FB80FF
:1043C400BB6A186BFB889B001A46A52102F030FAE1
:1043D400BB6A1A6BFB8803F18043013B9B001344C7
:1043E4003B613B6923F007033B613B6903F007032F
:1043F400002B02D072B600BFFEE7BB68002B1ED0B4
:1044040000237B6112E0BA687B6913441978BA6AA5
:104414007B69134434330A461A70BA687B691344BF
:104424001B78002B06D07B6901337B617B690F2BE2
:10443400E9D900E000BFBB6A002283F843203B6A4D
:10444400072B02D972B600BFFEE73B6A072B01D9DE
:1044540007233B62BB6A3A6ADA62BB6A3A6A5A6405
:10446400BB6A04331846FFF7D6F9BB6A18331846FB
:10447400FFF7D1F9BB6ABA6A1A613B6AC3F1080251
:10448400BB6A9A61BB6ABA6A5A623A68F96838695F
:1044940001F058FD0246BB6A1A60BB6A1B683A69A0
:1044A400D31A9B101A46FB889A4202D372B600BFF5
:1044B400FEE77B6A002B02D07B6ABA6A1A6000BFEF
:1044C4001837BD4680BD000080B584B000AF786069
:1044D40001F048FE3F4B1B6801333E4A13603E4BDC
:1044E4001B68002B09D13C4A7B681360394B1B685D
:1044F400012B10D100F09AFD0DE0384B1B68002B06
:1045040009D1354B1B68DA6A7B68DB6A9A4202D8A8
:10451400314A7B681360324B1B680133304A1360A5
:104524007B68DB6A01229A402E4B1B6813432D4A99
:1045340013607B68DA6A2C4913469B0013449B0082
:104544000B4404331B68FB607B68FA689A60FB6861
:104554009A687B68DA60FB689B687A6804325A6000
:104564007B681A1DFB689A607B68DA6A13469B00B5
:1045740013449B001C4A1A447B685A617B68DA6ABC
:10458400194913469B0013449B000B441B687A682B
:10459400D26A591C144813469B0013449B000344DD
:1045A400196001F007FE0D4B1B68002B0ED00A4B5F
:1045B4001B68DA6A7B68DB6A9A4207D20B4B4FF0BE
:1045C40080521A60BFF34F8FBFF36F8F00BF103755
:1045D400BD4680BDB8060020B8050020C4060020F2
:1045E400D4060020C0060020BC05002004ED00E035
:1045F40080B584B000AF78600023FB607B68002B3B
:104604000FD000F0B3F80E4B1B68012B02D072B62A
:1046140000BFFEE70021786801F028F900F0B4F843
:10462400F860FB68002B07D1064B4FF080521A60EC
:10463400BFF34F8FBFF36F8F00BF1037BD4680BDF0
:10464400E006002004ED00E080B58AB002AF01234B
:10465400FB6100233B603B1D00221A605A609A6094
:1046640000233B6100237B6111E01F4A7B691344F3
:1046740019783A467B6913440A461A703A467B69AC
:1046840013441B78002B06D07B6901337B617B6963
:104694000E2BEAD900E000BF3A467B69134400229E
:1046A4001A700023BB6115E0104B3B61BB699B0092
:1046B4000F4A1344394601930023009300238022B8
:1046C4003869FFF751FEF861FB69012B06D1BB691C
:1046D4000133BB61BB69002BE6DD00E000BFFB6971
:1046E40018462037BD4680BD6C7300080150000891
:1046F400DC06002080B582B000AFFFF7A5FF78602C
:104704007B68012B02D101F007F978607B68012BEB
:1047140016D14FF0500383F31188BFF36F8FBFF3AB
:104724004F8F3B6000BF0D4B4FF0FF321A600C4BB4
:1047340001221A600B4B00221A6001F079FC06E09A
:104744007B68B3F1FF3F02D172B600BFFEE7064BB0
:104754001B6800BF0837BD4680BD00BFD8060020D7
:10476400C4060020BC0600200C00002080B400AF6A
:10477400044B1B680133034A136000BFBD4680BC71
:10478400704700BFE006002080B588B000AF00236A
:10479400FB610023BB6101F0E5FC00233B61714B2D
:1047A4001B68002B02D172B600BFFEE76D4B1B687D
:1047B400013B6C4A13606B4B1B68002B40F0CA80B2
:1047C400694B1B68002B00F0C5808EE0674BDB68EB
:1047D400DB68FB61FB699B6AFB60FB69DB69FA6967
:1047E400126A9A60FB691B6AFA69D2695A60FB68AB
:1047F4005A68FB6918339A4203D1FB691A6AFB6849
:104804005A60FB6900229A62FB681B685A1EFB68A7
:104814001A60FB695B69BB60FB699B68FA69D268D3
:104824009A60FB69DB68FA6992685A60BB685A68E7
:10483400FB6904339A4203D1FB69DA68BB685A60A6
:10484400FB6900225A61BB681B685A1EBB681A6068
:10485400FB69DB6A01229A40454B1B681343444AB7
:104864001360FB69DA6A434913469B0013449B00B7
:104874000B4404331B687B60FB697A689A607B682D
:104884009A68FB69DA607B689B68FA6904325A604B
:10489400FB691A1D7B689A60FB69DA6A13469B0000
:1048A40013449B00334A1A44FB695A61FB69DA6A70
:1048B400304913469B0013449B000B441B68FA6960
:1048C400D26A591C2B4813469B0013449B00034493
:1048D4001960FB69DA6A284B1B68DB6A9A4204D9BF
:1048E400264A3B69012142F82310204B1B68002B08
:1048F4007FF46CAFFB69002B01D000F00FFC204B60
:104904001B687B617B69002B12D000F04BF80346D7
:10491400002B04D0194A3B69012142F823107B691A
:10492400013B7B617B69002BEFD1154B00221A60A0
:10493400124A3B6952F82330002B0BD00123BB6190
:104944000D4B1B680F4B4FF080521A60BFF34F8F13
:10495400BFF36F8F01F02EFCBB6918462037BD46AC
:1049640080BD00BFE0060020B80600208C060020B1
:10497400C0060020BC050020B8050020CC0600209D
:10498400C806002004ED00E080B483B000AF044BFF
:104994001B687B607B6818460C37BD4680BC70473B
:1049A400BC06002080B588B000AF0023FB617A4BC1
:1049B4001B68002B40F0E680784B1B680133BB6119
:1049C400764ABB691360BB69002B18D1744B1B6812
:1049D4001B68002B02D072B600BFFEE7704B1B6849
:1049E4007B61704B1B686E4A13606E4A7B6913606F
:1049F4006D4B1B6801336C4A136000F08FFB6B4BEB
:104A04001B68BA699A42C0F0A880654B1B681B6892
:104A1400002B04D1654B4FF0FF321A609DE0604BD0
:104A24001B68DB68DB683B613B695B68FB60BA69F8
:104A3400FB689A4203D25D4AFB6813608DE03B69D0
:104A44005B69BB603B699B683A69D2689A603B6961
:104A5400DB683A6992685A60BB685A683B690433F8
:104A64009A4203D13B69DA68BB685A603B69002209
:104A74005A61BB681B685A1EBB681A603B699B6A13
:104A8400002B1ED03B699B6A7B603B69DB693A69FA
:104A9400126A9A603B691B6A3A69D2695A607B68F8
:104AA4005A683B6918339A4203D13B691A6A7B6896
:104AB4005A603B6900229A627B681B685A1E7B68B5
:104AC4001A603B69DB6A01229A40394B1B68134325
:104AD400374A13603B69DA6A364913469B0013442C
:104AE4009B000B4404331B683B603B693A689A6043
:104AF4003B689A683B69DA603B689B683A690432B0
:104B04005A603B691A1D3B689A603B69DA6A13462E
:104B14009B0013449B00274A1A443B695A613B6932
:104B2400DA6A244913469B0013449B000B441B6818
:104B34003A69D26A591C1F4813469B0013449B00D0
:104B4400034419603B69DA6A1B4B1B68DB6A9A42AF
:104B54007FF65BAF0123FB6157E7174B1B68DA6AEB
:104B6400144913469B0013449B000B441B68012B00
:104B740001D90123FB61114B1B68002B07D00123D2
:104B8400FB6104E00E4B1B6801330D4A1360FB69A3
:104B940018462037BD4680BDE0060020BC06002034
:104BA4008406002088060020D0060020D8060020B5
:104BB400C0060020BC050020B8050020CC0600205B
:104BC400C806002080B588B000AF3A4B1B68002BA4
:104BD40003D0394B01221A6068E0374B00221A6077
:104BE400364B1B681B6BFB614FF0A533BB61334B2A
:104BF4001B681A68314B1B681B6B9A4216D9FB69F8
:104C04001B68BA699A4211D1FB6904331B68BA69FB
:104C14009A420BD1FB6908331B68BA699A4205D1E1
:104C2400FB690C331B68BA699A4209D0234B1B6891
:104C340034337B61214B1B6879691846FEF7BCFD50
:104C44001F4B1B68BB60BB68B3FA83F3FB71FB7932
:104C5400C3F11F033B611B493A6913469B0013448C
:104C64009B000B441B68002B02D172B600BFFEE709
:104C74003A6913469B0013449B00124A1344FB6099
:104C8400FB685B685A68FB685A60FB685A68FB6893
:104C940008339A4203D1FB68DA68FB685A60FB6800
:104CA4005B68DB68054A1360044B1B6800BF203750
:104CB400BD4680BDE0060020CC060020B8050020DB
:104CC400C0060020BC05002080B582B000AF78602B
:104CD40039607B68002B02D172B600BFFEE7074B38
:104CE4001B68183319467868FEF7A1FD012138685E
:104CF40000F0BCFD00BF0837BD4680BDB8050020EC
:104D040080B586B000AFF860B9607A60FB68002BAC
:104D140002D172B600BFFEE7FB685B687B61164B8D
:104D24001B687A69DA61144B1B687A6992681A62A3
:104D3400114B1A687B699B6818325A600E4B1B68CA
:104D440003F118027B699A600B4B1B68FA689A623C
:104D5400FB681B685A1CFB681A607B68002B02D036
:104D64004FF0FF33BB607968B86800F07FFD00BF87
:104D74001837BD4680BD00BFB805002080B489B097
:104D840000AF78607B68DB68DB68BB61BB69002BC4
:104D940002D172B600BFFEE7BB699B6A7B61BB6947
:104DA400DB69BA69126A9A60BB691B6ABA69D2691B
:104DB4005A607B695A68BB6918339A4203D1BB694C
:104DC4001A6A7B695A60BB6900229A627B691B6814
:104DD4005A1E7B691A604B4B1B68002B60D1BB6960
:104DE4005B69FB60BB699B68BA69D2689A60BB69FE
:104DF400DB68BA6992685A60FB685A68BB69043315
:104E04009A4203D1BB69DA68FB685A60BB69002225
:104E14005A61FB681B685A1EFB681A60BB69DB6A2F
:104E240001229A40384B1B681343374A1360BB690D
:104E3400DA6A364913469B0013449B000B4404333F
:104E44001B68BB60BB69BA689A60BB689A68BB6937
:104E5400DA60BB689B68BA6904325A60BB691A1D80
:104E6400BB689A60BB69DA6A13469B0013449B00D3
:104E7400264A1A44BB695A61BB69DA6A2349134654
:104E84009B0013449B000B441B68BA69D26A591CEB
:104E94001E4813469B0013449B00034419601BE007
:104EA4001B4B5B683B61BB693A69DA613B699A6891
:104EB400BB691A623B699B68BA6918325A60BB695C
:104EC40003F118023B699A60BB69114A9A62104B5C
:104ED4001B6801330E4A1360BB69DA6A0D4B1B6809
:104EE400DB6A9A4205D90123FB610B4B01221A604C
:104EF40001E00023FB61FB6918462437BD4680BCF2
:104F0400704700BFE0060020C0060020BC0500205A
:104F14008C060020B8050020CC06002080B483B0A5
:104F240000AF7860064B1A687B681A60054B1A68F4
:104F34007B685A6000BF0C37BD4680BC704700BF19
:104F4400D0060020BC06002080B586B000AF786093
:104F540039607B68002B02D172B600BFFEE73B6864
:104F6400002B02D172B600BFFEE701F0FBF81B4B29
:104F74001B683B617B685B683A69D31AFB607B689A
:104F84001A68174B1B689A420AD07B685B683A69B7
:104F94009A4205D301237B613B6800221A6015E025
:104FA4003B681B68FA689A420BD23B681A68FB6834
:104FB400D21A3B681A607868FFF7B0FF00237B6160
:104FC40004E03B6800221A6001237B6101F0F2F8DF
:104FD4007B6918461837BD4680BD00BFBC0600205B
:104FE400D006002080B400AF034B01221A6000BF3A
:104FF400BD4680BC704700BFCC06002080B582B09F
:1050040000AF786000F04CF8064B1B68012BF9D90F
:10501400054B4FF080521A60BFF34F8FBFF36F8F71
:10502400F0E700BFBC05002004ED00E080B582B0CD
:1050340000AF00237B600CE07A6813469B001344A6
:105044009B00104A13441846FEF7C6FB7B680133E5
:105054007B607B68072BEFD90B48FEF7BDFB0B4841
:10506400FEF7BAFB0A48FEF7B7FB0A48FEF7B4FBA3
:10507400094B054A1A60094B044A1A6000BF0837F5
:10508400BD4680BDBC0500205C06002070060020E3
:105094008C060020A006002084060020880600203C
:1050A40080B582B000AF19E001F05CF8104BDB680A
:1050B400DB687B607B6804331846FEF7F0FB0D4B1E
:1050C4001B68013B0B4A13600B4B1B68013B0A4AEC
:1050D400136001F06FF8786800F010F8064B1B6855
:1050E400002BE1D100BF00BF0837BD4680BD00BF23
:1050F400A0060020B8060020B406002080B582B0C7
:1051040000AF78607B681B6B184601F00FFA786873
:1051140001F00CFA00BF0837BD4680BD80B400AF73
:10512400094B1B681B68002B04D1084B4FF0FF325E
:105134001A6005E0044B1B68DB681B68034A1360B4
:1051440000BFBD4680BC704784060020D8060020FE
:1051540080B483B000AF044B1B687B607B68184647
:105164000C37BD4680BC7047B805002080B483B0BE
:1051740000AF0B4B1B68002B02D101237B6008E0BE
:10518400084B1B68002B02D102237B6001E0002343
:105194007B607B6818460C37BD4680BC704700BFF7
:1051A400C4060020E006002080B586B000AF786019
:1051B4007B683B6100237B617B68002B00F0898066
:1051C4003B69DA6A454B1B68DB6A9A4278D23B69D1
:1051D4009B69002B06DB414B1B68DB6AC3F10802A9
:1051E4003B699A613B6959693B69DA6A13469B00DA
:1051F40013449B003A4A1344994259D13B690433FE
:105204001846FEF74CFB0346002B0AD13B69DB6AC8
:10521400012202FA03F3DA43324B1B681340314A8A
:1052240013602E4B1B68DA6A3B69DA623B69DB6AFE
:1052340001229A402B4B1B6813432A4A13603B6993
:10524400DA6A274913469B0013449B000B4404333A
:105254001B68FB603B69FA689A60FB689A683B6963
:10526400DA60FB689B683A6904325A603B691A1D2C
:10527400FB689A603B69DA6A13469B0013449B00FF
:10528400174A1A443B695A613B69DA6A144913465E
:105294009B0013449B000B441B683A69D26A591C57
:1052A4000F4813469B0013449B000344196004E019
:1052B4000A4B1B68DA6A3B69DA6201237B6108E006
:1052C4003B695A6C054B1B68DB6A9A4201D2012385
:1052D4007B617B6918461837BD4680BDB805002040
:1052E400BC050020C006002080B586B000AF786001
:1052F4007B683B6100237B617B68002B7DD0414B45
:105304001B683A699A4202D072B600BFFEE73B6955
:105314009B6C002B02D172B600BFFEE73B699B6C0D
:105324005A1E3B699A643B69DA6A3B695B6C9A4230
:1053340063D03B699B6C002B5FD13B6904331846F7
:10534400FEF7ADFA0346002B0AD13B69DB6A012262
:1053540002FA03F3DA432C4B1B6813402A4A136006
:105364003B695A6C3B69DA623B69DB6AC3F1080248
:105374003B699A613B69DB6A01229A40224B1B68B4
:105384001343214A13603B69DA6A204913469B00A0
:1053940013449B000B4404331B68FB603B69FA68AD
:1053A4009A60FB689A683B69DA60FB689B683A69B3
:1053B40004325A603B691A1DFB689A603B69DA6AD9
:1053C40013469B0013449B00104A1A443B695A61DC
:1053D4003B69DA6A0D4913469B0013449B000B4456
:1053E4001B683A69D26A591C084813469B00134447
:1053F4009B000344196001237B617B6918461837BD
:10540400BD4680BDB8050020C0060020BC050020B4
:1054140080B588B000AF786039607B68BB610123D8
:105424007B617B68002B00F09180BB699B6C002B37
:1054340002D172B600BFFEE7BB695B6C3A689A4260
:1054440002D93B68FB6102E0BB695B6CFB61BB6931
:10545400DB6AFA699A4279D0BB699B6C7A699A4291
:1054640074D13C4B1B68BA699A4202D172B600BF30
:10547400FEE7BB69DB6A3B61BB69FA69DA62BB6957
:105484009B69002B04DBFB69C3F10802BB699A61C9
:10549400BB6959693A6913469B0013449B002E4A21
:1054A4001344994252D1BB6904331846FEF7F7F905
:1054B4000346002B09D101223B6902FA03F3DA43C4
:1054C400264B1B681340254A1360BB69DB6A012223
:1054D4009A40224B1B681343204A1360BB69DA6A63
:1054E4001D4913469B0013449B000B4404331B6863
:1054F400FB60BB69FA689A60FB689A68BB69DA600A
:10550400FB689B68BA6904325A60BB691A1DFB6860
:105514009A60BB69DA6A13469B0013449B000E4AE7
:105524001A44BB695A61BB69DA6A0B4913469B008A
:1055340013449B000B441B68BA69D26A591C064881
:1055440013469B0013449B000344196000BF20379B
:10555400BD4680BDB8050020BC050020C006002063
:1055640080B483B000AF084B1B687B607B68002B62
:1055740004D07B689B6C5A1C7B689A647B681846D1
:105584000C37BD4680BC7047B805002080B588B094
:1055940000AFF860B9607A600023FB61FB68002B00
:1055A40002D072B600BFFEE7354B1A68FB681233AF
:1055B4009B0013445B68002B32D17B68002B2FD0F7
:1055C400FFF7D4F800F0CEFD2D4B1A68FB681233B8
:1055D4009B0013445B68002B08D1294B1A68FB68B5
:1055E4001344503301221A700123FB6100F0E2FDE1
:1055F400FB69012B03D10121786800F037F9FFF72B
:10560400C3F8B861FB69012B0AD1BB69002B07D130
:105614001C4B4FF080521A60BFF34F8FBFF36F8F54
:1056240000F0A0FD164B1A68FB6812339B0013446C
:105634005B687B617B69002B14D0BB68002B08D0AE
:105644000F4B1A68FB6812339B00134400225A6004
:1056540008E00B4B19687B695A1EFB6812339B00E8
:105664000B445A60064B1A68FB68134450330022FB
:105674001A7000F09FFD7B6918462037BD4680BD37
:10568400B805002004ED00E080B58EB000AFF860EE
:10569400B9607A60FB68002B02D172B600BFFEE7E6
:1056A400BB68002B02D072B600BFFEE700F00AFE12
:1056B400FB687B63EFF311824FF0500383F311888F
:1056C400BFF36F8FBFF34F8FFA61BB61FB693B631D
:1056D4007A6BBB68134450331B7887F82F307A6B8E
:1056E400BB681344503302221A707A6BBB681233BE
:1056F4009B0013445B685A1C796BBB6812339B0094
:105704000B445A6097F82F30012B40F098807B6B44
:105714009B6A002B02D072B600BFFEE74D4B1B689C
:10572400002B60D17B6B5B697B627B6B9B687A6BC4
:10573400D2689A607B6BDB687A6B92685A607B6A8A
:105744005A687B6B04339A4203D17B6BDA687B6AB9
:105754005A607B6B00225A617B6A1B685A1E7B6A03
:105764001A607B6BDB6A01229A403B4B1B68134334
:10577400394A13607B6BDA6A384913469B00134439
:105784009B000B4404331B683B627B6B3A6A9A6050
:105794003B6A9A687B6BDA603B6A9B687A6B04327B
:1057A4005A607B6B1A1D3B6A9A607B6BDA6A1346FC
:1057B4009B0013449B00294A1A447B6B5A617B6B00
:1057C400DA6A264913469B0013449B000B441B686A
:1057D4007A6BD26A591C214813469B0013449B00E0
:1057E400034419601BE01E4B5B68BB627B6BBA6AA7
:1057F400DA61BB6A9A687B6B1A62BB6A9B687A6BD4
:1058040018325A607B6B03F11802BB6A9A607B6B97
:10581400134A9A62124B1B680133114A13607B6B63
:10582400DA6A104B1B68DB6A9A4208D97B68002B42
:1058340002D07B6801221A600B4B01221A603B6B79
:105844007B617B6983F3118800BF00BF3837BD4695
:1058540080BD00BFE0060020C0060020BC0500207B
:105864008C060020B8050020CC06002080B586B048
:1058740000AF78603960224B1B687B61214B1B6849
:105884003B61214B1B68FB60204B1B6804331846AB
:10589400FEF705F80346002B0BD11C4B1B68DB6A93
:1058A400012202FA03F3DA43194B1B681340184A26
:1058B40013607A697B681344BB60144B1B68BA6835
:1058C4005A60BA687B699A4207D2104B1B6804334A
:1058D4001946F868FDF7ABFF0EE00C4B1B68043368
:1058E40019463869FDF7A3FF0A4B1B68BA689A4248
:1058F40002D2084ABB68136000BF1837BD4680BD9A
:10590400BC0600208406002088060020B80500207C
:10591400C0060020D806002080B584B002AF002362
:105924007B6000F0E5FA0D4B1B68002B0BD00C4B91
:1059340001930223009300234FF4807209490A481B
:10594400FEF712FD78607B68002B02D172B600BFAF
:10595400FEE77B6818460837BD4680BD1407002063
:105964001807002074730008355B000880B588B000
:1059740002AFF860B9607A603B60282000F0D0FC88
:1059840078617B69002B0DD07B69002283F8242089
:105994007B6901933B6A00933B687A68B968F8684D
:1059A40000F005F87B6918461837BD4680BD80B500
:1059B40084B000AFF860B9607A603B60BB68002BCC
:1059C40002D172B600BFFEE700F092FAFB69FA68F2
:1059D4001A60FB69BA689A61FB693A68DA61FB6923
:1059E400BA691A62FB6904331846FDF714FF7B6831
:1059F400002B08D0FB6993F8243043F00403DAB297
:105A0400FB6983F8242000BF1037BD4680BD000029
:105A140080B58AB000AFF860B9607A603B6000235B
:105A24007B62194B1B68002B29D0FB68002B26D006
:105A3400BB687B617B68BB61FB68FB61BB68052B52
:105A440002DD72B600BFFEE7BB68052B17DCFFF76B
:105A54008DFB0346022B09D10B4B186807F1140187
:105A640000233A6BFEF75CF8786208E0064B18688E
:105A740007F1140100230022FEF752F878627B6AD2
:105A840018462837BD4680BD1407002080B584B071
:105A940000AFF860B9607A6008E0FB689B69BA6897
:105AA4001344BB60FB681B6AF8689847FB689A69F3
:105AB400BB68D118BB687A68F86800F0DBF8034665
:105AC400002BEAD100BF00BF1037BD4680BD0000E7
